:020000040800F2
:1000000000000220295F0008E1580008E9580008B4
:10001000F1580008F95800080159000800000000D4
:100020000000000000000000000000000959000866
:10003000175900080000000025590008335900082E
:10004000795F0008795F0008795F0008795F000830
:10005000795F0008795F0008795F0008795F000820
:10006000795F00083F590008795F0008795F000850
:10007000795F0008795F0008795F00084D59000832
:10008000795F0008795F0008795F000800000000D0
:10009000000000000000000000000000795F000880
:1000A000795F0008795F0008795F0008795F0008D0
:1000B0006159000875590008795F0008795F0008E8
:1000C000795F0008795F0008795F000889590008A6
:1000D0009D590008B1590008795F00080000000030
:1000E000795F0008795F0008795F00080000000070
:1000F000000000000000000000000000795F000820
:1001000000000000795F0008795F0008795F00084F
:1001100000000000000000000000000000000000DF
:10012000795F0008795F0008795F0008795F00084F
:10013000795F0008000000000000000000000000DF
:10014000000000000000000000000000795F0008CF
:10015000795F0008795F0008795F0008795F00081F
:10016000795F0008795F00080000000000000000CF
:10017000000000000000000000000000000000007F
:1001800000000000795F000800000000000000008F
:08019000795F0008795F0008A7
:1001A00010B5054C237833B9044B13B10448AFF3B1
:1001B00000800123237010BDF0010020000000002A
:1001C0005CCD000808B5034B1BB103490348AFF3EE
:1001D000008008BD00000000F40100205CCD000894
:1001E00001F0FF01102A2BDB10F0070F08D010F8E8
:1001F000013B013A8B422DD010F0070F42B3F6D1EC
:10020000F0B441EA012141EA014122F007047FF004
:1002100000070023F0E80256083C85EA010586EA5B
:10022000010685FA47F5A3FA87F586FA47F6A5FA97
:1002300087F68EB9EED1F0BC01F0FF0102F00702A3
:1002400032B110F8013B013A83EA010313B1F8D14E
:100250000020704701387047002D06BF354603382F
:10026000073815F0010F07D1013015F4807F02BF68
:10027000013015F4C03F0130F0BC0138704700BFB9
:10028000034613F8012B002AFBD1181A01387047D6
:1002900081F0004102E000BF83F0004330B54FEA37
:1002A00041044FEA430594EA050F08BF90EA020FA4
:1002B0001FBF54EA000C55EA020C7FEA645C7FEA37
:1002C000655C00F0E2804FEA5454D4EB5555B8BF5A
:1002D0006D420CDD2C4480EA020281EA030382EACB
:1002E000000083EA010180EA020281EA0303362D5D
:1002F00088BF30BD11F0004F4FEA01314FF4801C30
:100300004CEA113102D0404261EB410113F0004F41
:100310004FEA03334CEA133302D0524263EB4303F8
:1003200094EA050F00F0A780A4F10104D5F1200E96
:100330000DDB02FA0EFC22FA05F2801841F10001F1
:1003400003FA0EF2801843FA05F359410EE0A5F1C5
:1003500020050EF1200E012A03FA0EFC28BF4CF0F6
:10036000020C43FA05F3C01851EBE37101F00045AC
:1003700007D54FF0000EDCF1000C7EEB00006EEBB9
:100380000101B1F5801F1BD3B1F5001F0CD3490843
:100390005FEA30004FEA3C0C04F101044FEA44529A
:1003A00012F5800F80F09A80BCF1004F08BF5FEA21
:1003B000500C50F1000041EB045141EA050130BD01
:1003C0005FEA4C0C404141EB0101013C28BFB1F513
:1003D000801FE9D291F0000F04BF01460020B1FA5E
:1003E00081F308BF2033A3F10B03B3F120020CDA31
:1003F0000C3208DD02F1140CC2F10C0201FA0CF00F
:1004000021FA02F10CE002F11402D8BFC2F1200C73
:1004100001FA02F120FA0CFCDCBF41EA0C01904029
:10042000E41AA2BF01EB0451294330BD6FEA040472
:100430001F3C1CDA0C340EDC04F11404C4F120025D
:1004400020FA04F001FA02F340EA030021FA04F36F
:1004500045EA030130BDC4F10C04C4F1200220FAC6
:1004600002F001FA04F340EA0300294630BD21FA04
:1004700004F0294630BD94F0000F83F4801306BFCA
:1004800081F480110134013D4EE77FEA645C18BFBE
:100490007FEA655C29D094EA050F08BF90EA020F55
:1004A00005D054EA000C04BF1946104630BD91EA4D
:1004B000030F1EBF0021002030BD5FEA545C05D150
:1004C0004000494128BF41F0004130BD14F580048F
:1004D0003CBF01F5801130BD01F0004545F0FE4103
:1004E00041F470014FF0000030BD7FEA645C1ABF38
:1004F000194610467FEA655C1CBF0B46024650EA6F
:10050000013406BF52EA033591EA030F41F400219A
:1005100030BD00BF90F0000F04BF0021704730B520
:100520004FF4806404F132044FF000054FF00001F5
:1005300050E700BF90F0000F04BF0021704730B5B6
:100540004FF4806404F1320410F0004548BF40428B
:100550004FF000013EE700BF42004FEAE2014FEAE0
:1005600031014FEA02701FBF12F07F4393F07F4FBB
:1005700081F06051704732F07F4208BF704793F0BE
:100580007F4F04BF41F40021704730B54FF46074D1
:1005900001F0004521F000411CE700BF50EA0102D4
:1005A00008BF704730B54FF000050AE050EA01027D
:1005B00008BF704730B511F0004502D5404261EBED
:1005C00041014FF4806404F132045FEA915C3FF42E
:1005D000D8AE4FF003025FEADC0C18BF03325FEACB
:1005E000DC0C18BF033202EBDC02C2F1200300FA7C
:1005F00003FC20FA02F001FA03FE40EA0E0021FAA1
:1006000002F11444BDE600BF70B54FF0FF0C4CF48E
:10061000E06C1CEA11541DBF1CEA135594EA0C0F40
:1006200095EA0C0F00F0DEF82C4481EA030621EA7B
:100630004C5123EA4C5350EA013518BF52EA0335B6
:1006400041F4801143F4801338D0A0FB02CE4FF068
:100650000005E1FB02E506F00042E0FB03E54FF098
:100660000006E1FB03569CF0000F18BF4EF0010E90
:10067000A4F1FF04B6F5007F64F5407404D25FEA8C
:100680004E0E6D4146EB060642EAC62141EA55513F
:100690004FEAC52040EA5E504FEACE2EB4F1FD0C81
:1006A00088BFBCF5E06F1ED8BEF1004F08BF5FEAFF
:1006B000500E50F1000041EB045170BD06F00046B1
:1006C00046EA010140EA020081EA0301B4EB5C045E
:1006D000C2BFD4EB0C0541EA045170BD41F4801156
:1006E0004FF0000E013C00F3AB8014F1360FDEBF7B
:1006F000002001F0004170BDC4F10004203C35DA57
:100700000C341BDC04F11404C4F1200500FA05F3D9
:1007100020FA04F001FA05F240EA020001F000427A
:1007200021F0004110EBD37021FA04F642EB0601F0
:100730005EEA430E08BF20EAD37070BDC4F10C041A
:10074000C4F1200500FA04F320FA05F001FA04F2DE
:1007500040EA020001F0004110EBD37041F10001CA
:100760005EEA430E08BF20EAD37070BDC4F12005D5
:1007700000FA05F24EEA020E20FA04F301FA05F23D
:1007800043EA020321FA04F001F0004121FA04F2E5
:1007900020EA020000EBD3705EEA430E08BF20EAB5
:1007A000D37070BD94F0000F0FD101F000464000EF
:1007B00041EB010111F4801F08BF013CF7D041EA71
:1007C000060195F0000F18BF704703F00046520075
:1007D00043EB030313F4801F08BF013DF7D043EA46
:1007E0000603704794EA0C0F0CEA135518BF95EAFC
:1007F0000C0F0CD050EA410618BF52EA4306D1D183
:1008000081EA030101F000414FF0000070BD50EAA1
:10081000410606BF1046194652EA430619D094EA2B
:100820000C0F02D150EA013613D195EA0C0F05D115
:1008300052EA03361CBF104619460AD181EA030169
:1008400001F0004141F0FE4141F470014FF0000021
:1008500070BD41F0FE4141F4780170BD70B54FF0BC
:10086000FF0C4CF4E06C1CEA11541DBF1CEA13553C
:1008700094EA0C0F95EA0C0F00F0A7F8A4EB05041E
:1008800081EA030E52EA03354FEA013100F0888015
:100890004FEA03334FF0805545EA131343EA1263DE
:1008A0004FEA022245EA111545EA10654FEA002693
:1008B0000EF000419D4208BF964244F1FD0404F54C
:1008C000407402D25B084FEA3202B61A65EB0305A8
:1008D0005B084FEA32024FF480104FF4002CB6EB65
:1008E000020E75EB030E22BFB61A754640EA0C00E5
:1008F0005B084FEA3202B6EB020E75EB030E22BF25
:10090000B61A754640EA5C005B084FEA3202B6EB65
:10091000020E75EB030E22BFB61A754640EA9C0024
:100920005B084FEA3202B6EB020E75EB030E22BFF4
:10093000B61A754640EADC0055EA060E18D04FEAB2
:10094000051545EA16754FEA06164FEAC30343EA52
:1009500052734FEAC2025FEA1C1CC0D111F4801F1F
:100960000BD141EA00014FF000004FF0004CB6E718
:1009700011F4801F04BF01430020B4F1FD0C88BFB7
:10098000BCF5E06F3FF6AFAEB5EB030C04BFB6EBC2
:10099000020C5FEA500C50F1000041EB045170BDB5
:1009A0000EF0004E4EEA113114EB5C04C2BFD4EBE2
:1009B0000C0541EA045170BD41F480114FF0000E66
:1009C000013C90E645EA060E8DE60CEA135594EAE2
:1009D0000C0F08BF95EA0C0F3FF43BAF94EA0C0FE5
:1009E0000AD150EA01347FF434AF95EA0C0F7FF45A
:1009F00025AF104619462CE795EA0C0F06D152EAAE
:100A000003353FF4FDAE1046194622E750EA410691
:100A100018BF52EA43067FF4C5AE50EA41047FF4A2
:100A20000DAF52EA43057FF4EBAE12E74FF0FF3C07
:100A300006E000BF4FF0010C02E000BF4FF0010CD8
:100A40004DF804CD4FEA410C7FEA6C5C4FEA430C51
:100A500018BF7FEA6C5C1BD001B050EA410C0CBFA0
:100A600052EA430C91EA030F02BF90EA020F002002
:100A7000704710F1000F91EA030F58BF994208BF69
:100A800090422CBFD8176FEAE37040F00100704726
:100A90004FEA410C7FEA6C5C02D150EA013C07D17D
:100AA0004FEA430C7FEA6C5CD6D152EA033CD3D0C8
:100AB0005DF8040B704700BF8446104662468C46C2
:100AC0001946634600E000BF01B5FFF7B7FF0028F5
:100AD00048BF10F1000F01BD4DF808EDFFF7F4FF1E
:100AE0000CBF012000205DF808FB00BF4DF808EDA9
:100AF000FFF7EAFF34BF012000205DF808FB00BFCC
:100B00004DF808EDFFF7E0FF94BF012000205DF8ED
:100B100008FB00BF4DF808EDFFF7CEFF94BF0120A2
:100B200000205DF808FB00BF4DF808EDFFF7C4FF9B
:100B300034BF012000205DF808FB00BF4FEA410CE4
:100B40007FEA6C5C02D150EA013C0AD14FEA430CC7
:100B50007FEA6C5C02D152EA033C02D14FF0000004
:100B600070474FF0010070474FEA410212F5001242
:100B700015D211D56FF47873B3EB625212D94FEAE4
:100B8000C12343F0004343EA505311F0004F23FACE
:100B900002F018BF404270474FF00000704750EA23
:100BA000013005D111F0004008BF6FF000407047E0
:100BB0004FF00000704700BF4A0011D212F500123A
:100BC00011D20DD56FF47873B3EB62520ED44FEAA5
:100BD000C12343F0004343EA505323FA02F0704725
:100BE0004FF00000704750EA013002D14FF0FF3063
:100BF00070474FF00000704753B94AB9002908BF49
:100C000000281CBF4FF0FF314FF0FF3000F06AB9F1
:100C1000ADF1080C6DE904CE00F006F8DDF804E053
:100C2000DDE9022304B070472DE9F047089D0C462A
:100C3000002B4ED194468C458646B2FA82F262D998
:100C40004AB1C2F12003914020FA03F30CFA02FCEE
:100C5000194300FA02FE4FEA1C471FFA8CF6B1FB5B
:100C6000F7F44FEA1E4307FB141143EA014304FB68
:100C700006F199420AD91CEB030304F1FF3080F01E
:100C80001281994240F20F81023C6344591A1FFAC3
:100C90008EF3B1FBF7F007FB101143EA014300FBB1
:100CA00006F69E420AD91CEB030300F1FF3180F0E7
:100CB000FC809E4240F2F980634402389B1B40EA6C
:100CC000044000211DB1D3400022C5E90032BDE837
:100CD000F0878B4205D90DB1C5E900010021084616
:100CE000F5E7B3FA83F1002946D1A34202D390423B
:100CF000C0F0F080861A64EB03030120002DE6D0DB
:100D0000C5E90063E3E7002A40F09080A1EB0C0402
:100D10004FEA1C481FFA8CF70121B4FBF8F64FEAA2
:100D20001E4308FB164443EA044307FB06F09842BF
:100D300008D91CEB030306F1FF3402D2984200F2FB
:100D4000CD8026461C1A1FFA8EF3B4FBF8F008FB80
:100D5000104443EA044300FB07F79F4208D91CEB09
:100D6000030300F1FF3402D29F4200F2B08020461C
:100D7000DB1B40EA0640A5E7C1F120068B4022FAC2
:100D800006F71F4320FA06FC04FA01F343EA0C03BA
:100D9000F44000FA01F8380C4FEA1349B4FBF0FEB6
:100DA0001FFA87FC00FB1E4449EA04440EFB0CF9C1
:100DB000A14502FA01F20AD93C190EF1FF3A80F07E
:100DC0008480A14540F28180AEF1020E3C44A4EB48
:100DD00009041FFA83F9B4FBF0F300FB134449EA5A
:100DE000044403FB0CFCA44507D93C1903F1FF3074
:100DF00067D2A44565D9023B3C4443EA0E40A0FBC0
:100E00000293A4EB0C049C42CE469C4651D34ED098
:100E100055B1B8EB0E0364EB0C0404FA06F6CB40B4
:100E20001E43CC40C5E90064002150E7C2F1200315
:100E300020FA03F10CFA02FC24FA03F394400C4369
:100E40004FEA1C4800FA02FE1FFA8CF7B3FBF8F0D9
:100E500008FB1031230C43EA014300FB07F19942E0
:100E600008D91CEB030300F1FF362CD299422AD992
:100E7000023863445B1AA4B2B3FBF8F108FB1133E8
:100E800044EA034401FB07F3A34208D91CEB040422
:100E900001F1FF3613D2A34211D902396444E41A96
:100EA00041EA004139E70446F0E6084606E7C8454E
:100EB000AED2B9EB020E63EB070C0138A8E731465E
:100EC000EDE7034699E73046D4E7D6467FE763442B
:100ED00002384DE70646234608460FE7023E6344C4
:100EE00030E700BF704700BF80B500AF002204218B
:100EF0006D4805F071FF0A2005F0B2F801220421C7
:100F0000694805F069FF694B4FF4A0721A80684B7D
:100F10004FF4F0721A80E02000F03AFA002000F05E
:100F2000DFFA132000F0DCFA182000F0D9FA0420D0
:100F300000F0D6FA0F2000F0D3FA062000F0D0FA25
:100F40003A2000F0CDFA562000F0CAFA4D2000F009
:100F5000C7FA032000F0C4FA0A2000F0C1FA062004
:100F600000F0BEFA302000F0BBFA3E2000F0B8FAE4
:100F70000F2000F0B5FAE12000F00AFA002000F09E
:100F8000AFFA132000F0ACFA182000F0A9FA012003
:100F900000F0A6FA112000F0A3FA062000F0A0FA53
:100FA000382000F09DFA342000F09AFA4D2000F02D
:100FB00097FA062000F094FA0D2000F091FA0B2029
:100FC00000F08EFA312000F08BFA372000F088FA1A
:100FD0000F2000F085FAC02000F0DAF9182000F0A8
:100FE0007FFA162000F07CFAC12000F0D1F94520EC
:100FF00000F076FAC52000F0CBF9002000F070FA7E
:10100000632000F06DFA012000F06AFA362000F04B
:10101000BFF9F82000F064FA3A2000F0B9F9662030
:1010200000F05EFAB02000F0B3F9802000F058FA2A
:10103000B12000F0ADF9002000F052FA102000F0CD
:101040004FFAB42000F0A4F9022000F049FAB620CB
:1010500000F09EF9022000F043FAE92000F098F930
:10106000002000F03DFAF72000F092F9A92000F0EE
:1010700037FA512000F034FA2C2000F031FA8220A7
:1010800000F02EFA112000F083F9782004F0E8FF38
:10109000212000F07DF9782004F0E2FF292000F003
:1010A00077F900BF80BD00BF000402400C020020A1
:1010B0000E02002090B583B000AF044608461146EA
:1010C0001A462346FB800346BB800B467B801346B3
:1010D0003B802A2000F038F9FB881B0A9BB2DBB268
:1010E000184600F0D9F9FB88DBB2184600F0D4F9B5
:1010F0007B881B0A9BB2DBB2184600F0CDF97B88D7
:10110000DBB2184600F0C8F92B2000F01DF9BB88AF
:101110001B0A9BB2DBB2184600F0BEF9BB88DBB2FB
:10112000184600F0B9F93B881B0A9BB2DBB218469F
:1011300000F0B2F93B88DBB2184600F0ADF92C2084
:1011400000F002F900224FF40051064805F044FE79
:1011500001220221034805F03FFE00BF0C37BD46C7
:1011600090BD00BF0004024090B583B000AF0446BC
:10117000084611461A462346FB800346BB800B46B1
:101180007B8013463B80414BB3F90030B7F9062012
:101190009A4276DA3E4BB3F90030B7F904209A420E
:1011A0006FDAB7F90620B7F902301344374AB2F9BB
:1011B0000020934207DD354BB3F900309AB2FB882B
:1011C000D31A9BB27B80B7F90420B7F900301344DF
:1011D0002F4AB2F90020934207DD2D4BB3F90030BE
:1011E0009AB2BB88D31A9BB23B80F888B988FA8838
:1011F0007B8813449BB2013B9CB2BA883B88134462
:101200009BB2013B9BB22246FFF754FF0122022111
:10121000204805F0E1FD00224FF400511D4805F083
:10122000DBFD3B88BB8016E07B88FB8009E03B8BC5
:10123000184600F0D1F8B7F906309BB2013B9BB2DB
:10124000FB80B7F90630002BF1DCB7F904309BB214
:10125000013B9BB2BB80B7F90430002BE4DC0122D8
:101260004FF400510B4805F0B7FD01220221094857
:1012700005F0B2FD00224FF40051064805F0ACFD28
:1012800000E000BF0C37BD4690BD00BF0C0200203F
:101290000E0200200004024080B582B000AF034679
:1012A000FB71362000F050F8FB7903F00303DAB24B
:1012B000224B1A70214B1B78032B3BD801A252F80A
:1012C00023F000BFD5120008ED1200080513000836
:1012D0001D130008482000F0DFF8194B4FF4A072EE
:1012E0001A80184B4FF4F0721A8023E0282000F087
:1012F000D3F8134B4FF4F0721A80124B4FF4A072D4
:101300001A8017E0882000F0C7F80D4B4FF4A07248
:101310001A800C4B4FF4F0721A800BE0E82000F0BA
:10132000BBF8074B4FF4F0721A80064B4FF4A072D3
:101330001A8000BF00BF0837BD4680BD10020020E4
:101340000C0200200E02002080B582B000AF0346E0
:10135000FB71002202210C4805F03EFD00224FF4F3
:101360000051094805F038FDF91D01230122074805
:1013700006F085FA01224FF40051034805F02CFDD8
:1013800000BF0837BD4680BD000402406C0200204B
:1013900080B582B000AF0346FB71002202210C48E9
:1013A00005F01AFD00224FF40051094805F014FD24
:1013B000F91D01230122074806F061FA01224FF4CA
:1013C0000051034805F008FD00BF0837BD4680BD49
:1013D000000402406C02002080B584B000AF0346D8
:1013E000FB80FB88DB0A9BB2DBB2FB73FB885B11E3
:1013F000DBB203F03F03DBB2BB73FB88DBB203F06D
:101400001F03DBB27B73FB7B1A4613461B029B1A3E
:101410001E4A82FB03121A441211DB17D31ADBB2E5
:10142000FB73BB7B1A4613461B029B1A184A82FBAE
:1014300003121A445211DB17D31ADBB2BB737B7B46
:101440001A4613461B029B1A104A82FB03121A44C7
:101450001211DB17D31ADBB27B7307F10F010123E3
:1014600001220C4806F00BFA07F10E0101230122BC
:10147000084806F004FA07F10D010123012205488E
:1014800006F0FDF900BF1037BD4680BD430821843A
:10149000832008826C02002080B582B000AF034632
:1014A000FB71012202210C4805F096FC00224FF44A
:1014B0000051094805F090FCF91D0123012207485D
:1014C00006F0DDF901224FF40051034805F084FCD9
:1014D00000BF0837BD4680BD000402406C020020FA
:1014E00080B582B000AF0346FB71012202210C4897
:1014F00005F072FC00224FF40051094805F06CFC25
:10150000F91D01230122074806F0B9F901224FF421
:101510000051034805F060FC00BF0837BD4680BDA0
:10152000000402406C0200202DE9F0438DB000AFB2
:1015300003463960FB806B461E460023FB623B6816
:101540005B0040F2ED22934202D83B68FB6202E06E
:1015500040F2EE23FB6201220221694805F03CFCC7
:1015600000224FF40051664805F036FCFB88DB0A88
:101570009BB287F82330FB885B11DBB203F03F039B
:1015800087F82230FB88DBB203F01F0387F8213095
:1015900097F8232013461B029B1A5A4A82FB031218
:1015A0001A441211DB17D31A87F8233097F8222038
:1015B00013461B029B1A544A82FB03121A4452110F
:1015C000DB17D31A87F8223097F8212013461B0225
:1015D0009B1A4C4A82FB03121A441211DB17D31ACE
:1015E00087F82130F96A0B46013BFB6100238846EE
:1015F00099464FF000024FF000034FEAC90343EA57
:1016000058734FEAC80200230C461D464FF00002F3
:101610004FF00003EB0043EA5473E200CB1DDB08FC
:10162000DB00ADEB030D6B460033BB610023BB62F7
:1016300014E0BA69BB6A134497F823201A70BB6A96
:101640000133BA6997F82210D154BB6A0233BA69E0
:1016500097F82110D154BB6A0333BB62BA6AFB6AA4
:101660009A42E6D33A6813465B0013447B617A6979
:10167000FB6AB2FBF3F33B617B69FA6AB3FBF2F2FC
:10168000F96A01FB02F29B1AFB603B69002B18D040
:1016900000237B6211E01D4B00221A70FB6A9BB293
:1016A0001A46B9691A4806F0F1FC00BF174B1B78BF
:1016B000002BFBD07B6A01337B627A6A3B699A42DA
:1016C000E9D3FB68002B0ED0104B00221A70FB6888
:1016D0009BB21A46B9690E4806F0D8FC00BF0B4B06
:1016E0001B78002BFBD001224FF40051044805F079
:1016F00073FBB54600BF3437BD46BDE8F08300BF7D
:101700000004024043082184832008820C0000204A
:101710006C02002080B582B000AF0346FB8040F22F
:101720003F1340F2DF1200210020FFF7C3FCFB88CB
:101730004FF416311846FFF7F7FE00BF0837BD46D5
:1017400080BD90B58BB002AFBA607B600346FB8171
:101750000B46BB817B681B687B61BB681B88FB8376
:1017600000237B7700233B7700237B8300233B769A
:101770009BE000237B7656E03B7F002B09D1FB8B5F
:101780005A1CFA831A467B6913441B787B778023A3
:101790003B777A7F3B7F1340DBB2002B03D07B8B00
:1017A00001337B8339E07B8B002B36D0BB6893F908
:1017B00005301A467B7E1A447B8BD31A9AB297F86F
:1017C00030309BB212FB03F39AB2FB8913449BB2F5
:1017D00018B2BB6893F906301A463B7E13449AB29E
:1017E00097F830309BB212FB03F39AB2BB891344D3
:1017F0009BB219B297F830309BB27A8B12FB03F38D
:101800009BB21AB297F830301CB27B6B9BB200933C
:101810002346FFF7A9FC00237B833B7F5B083B77D4
:101820007B7E01337B76BB689B787A7E9A42A3D31A
:101830007B8B002B36D0BB6893F905301A467B7E34
:101840001A447B8BD31A9AB297F830309BB212FBB2
:1018500003F39AB2FB8913449BB218B2BB6893F9A5
:1018600006301A463B7E13449AB297F830309BB24A
:1018700012FB03F39AB2BB8913449BB219B297F8D7
:1018800030309BB27A8B12FB03F39BB21AB297F8FB
:1018900030301CB27B6B9BB200932346FFF764FC95
:1018A00000237B833B7E01333B76BB68DB783A7E4B
:1018B0009A42FFF45EAF00BF00BF2437BD4690BD23
:1018C00090B58FB002AFBA607B600346FB810B46D8
:1018D000BB81FB89FB85BB89BB8507F11C030C22FF
:1018E0007968184609F0F1F900237B8556E07B8D75
:1018F000BA6813441B7887F8293097F829300A2BE7
:101900000FD1FB89FB8597F826301A4697F84030AF
:101910009BB212FB03F39AB2BB8D13449BB2BB85FF
:1019200039E097F8243097F829209A4233D397F872
:10193000253097F829209A422DD897F829300D2B79
:1019400029D03A6A97F8293097F824105B1ADB00FF
:10195000D11807F114030822184609F0B6F907F167
:101960001C0407F11402B7F92C10B7F92E007B6C98
:10197000019397F8403000932346FFF7E2FE3B7E49
:101980001A4697F840309BB212FB03F39AB2FB8DD4
:1019900013449BB2FB857B8D01337B857C8DB868BE
:1019A000FEF76EFC03469C42A1D300BF00BF343754
:1019B000BD4690BD90B58BB002AF044608461146B7
:1019C0001A462346FB800346BB800B467B801346AA
:1019D0003B807A88FB88D31A002BB8BF5B42BB617F
:1019E0003A88BB88D31A002BB8BF5B427B61FA8868
:1019F0007B889A4201D2012301E04FF0FF333B6123
:101A0000BA883B889A4201D2012301E04FF0FF33AC
:101A1000FB60BA697B69D31AFB610023BB60B7F92D
:101A20000600B7F9041097F830301AB297F8303042
:101A30001CB27B6B9BB200932346FFF795FBFA88A1
:101A40007B889A4203D1BA883B889A421ED0FB69B0
:101A50005B00BB607B695B42BA689A4208DDFA6949
:101A60007B69D31AFB613B699AB2FB881344FB8004
:101A7000BA68BB699A42D2DAFA69BB691344FB615E
:101A8000FB689AB2BB881344BB80C8E700BF00BFA5
:101A90002437BD4690BD90B589B002AF04460846D4
:101AA00011461A462346FB800346BB800B467B80CB
:101AB00013467B707B88C3F101039BB2FB82012339
:101AC000BB827B881A46D203D31A5B009BB27B820F
:101AD00000233B827B88FB81ABE0B7F91630002BFB
:101AE0000EDBB7F90E309BB2013B9BB2FB817B8AC8
:101AF00002339BB27B82FA8A7B8A13449BB2FB82BD
:101B0000B7F910309BB201339BB23B82BB8A0233E0
:101B10009BB2BB82FA8ABB8A13449BB2FB827B785E
:101B200003F00103002B3FD0FA883B8A134498B29C
:101B3000BA88FB89D31A99B2FA883B8A13449CB2BB
:101B4000BA88FB89D31A9AB2FB895B009BB2134413
:101B50009AB23B8D13449AB2FB6A0193012300931E
:101B600013462246FFF726FFFA88FB89134498B2F2
:101B7000BA883B8AD31A99B2FA88FB8913449CB27B
:101B8000BA883B8AD31A9AB23B8A5B009BB2134451
:101B90009AB23B8D13449AB2FB6A019301230093DE
:101BA00013462246FFF706FF7B7803F00203002B63
:101BB0003FD0FA883B8AD31A98B2BA88FB89D31AE5
:101BC00099B2FA883B8AD31A9CB2BA88FB89D31A95
:101BD0009AB2FB895B009BB213449AB23B8D1344CB
:101BE0009AB2FB6A01930123009313462246FFF742
:101BF000E1FEFA88FB89D31A98B2BA883B8AD31AD5
:101C000099B2FA88FB89D31A9CB2BA883B8AD31A54
:101C10009AB23B8A5B009BB213449AB23B8D134449
:101C20009AB2FB6A01930123009313462246FFF701
:101C3000C1FEB7F91020B7F90E309A42FFF64DAF4A
:101C400000BF00BF1C37BD4690BD90B585B002AF48
:101C50000446084611461A462346FB800346BB80CD
:101C60000B467B8013463B80FA883B8B13449BB228
:101C700018B2B7F904103B8B5B009BB27A88D31A79
:101C80009BB21AB2B7F90040FB699BB2009323469E
:101C9000FFF76AFAFA887B8813449AB23B8BD31A0F
:101CA0009BB2013B9BB218B2BA883B8B13449BB2E8
:101CB00019B2B7F918403B8B5B009BB23A88D31A34
:101CC0009BB2013B9BB21BB2FA69019200930123C4
:101CD0002246FFF7E0FEFA883B8B13449BB218B212
:101CE000BA883B8B13449BB219B2B7F918403B8BAF
:101CF0005B009BB23A88D31A9BB2013B9BB21BB2EA
:101D0000FA690192009302232246FFF7C4FE00BF46
:101D10000C37BD4690BD000080B584B000AF786040
:101D2000396051E00023FB7347E02C4B1B68002215
:101D30005A622B4B1B881A46FB7B22FA03F3DAB25A
:101D4000FB7B79680B4402F00102D2B21A70FB7B74
:101D50007A6813441A78FB7B39680B441B789A42E3
:101D600015D0FB7B7A6813441A78FB7B62F07F0204
:101D7000D1B21C4AD154FB7B184602F031FB1A4BFE
:101D80001B78012B03D13968786801F019FEFB7BC1
:101D90007A681A44FB7B39680B4412781A70FB7B13
:101DA000082B07D9114B00221A7001221049114843
:101DB00007F013FAFB7B0133FB73FB7B092BB4D9D0
:101DC000074B1A880C4B1A80084B1B78DBB2002B90
:101DD000A8D100BF00BF1037BD4680BDC40300209E
:101DE00070040020680500206D0400207F0400209E
:101DF0001C0600200C0400207204002080B483B074
:101E000000AF7860044B01221A7000BF0C37BD464A
:101E10005DF8047B704700BF0C000020000000004C
:101E200080B586B000AFF860B9607A600023FB75BA
:101E30000023BB754DE0BB7D9B00BA68134493ED56
:101E4000007ABB7D9B00FA681344D3ED007A77EEED
:101E5000677A17EE900AFEF77FFB23A3D3E90023EE
:101E6000FEF758FE0346002B19D1BB7D9B00FA6894
:101E7000134493ED007ABB7D9B00BA681344D3ED05
:101E8000007A77EE677A17EE900AFEF765FB16A3E5
:101E9000D3E90023FEF73EFE0346002B11D0BB7DA5
:101EA0009B00BA681A44BB7D9B00F9680B4412681A
:101EB0001A60BB7D7A68134401221A700123FB75F6
:101EC00004E0BB7D7A68134400221A70BB7D0133A5
:101ED000BB75BB7D092BAED9FB7D18461837BD46B7
:101EE00080BD00BFAFF300809A9999999999C93F35
:101EF00090B58FB002AFDC23BB6232237B620F232D
:101F00003B620523FB610323BB614FF6FF70FFF7C4
:101F100001FC0023FB621CE03B6A18B2FB6A9AB228
:101F20007B6A9BB212FB03F39AB2FB699BB2134428
:101F30009BB219B2BB6A9BB25B009BB21AB2BB697F
:101F40001BB241F282040094FFF70EF9FB6A0133E1
:101F5000FB62FB6A052BDFDD0023FB6223E0FB6AEB
:101F60009AB2BB6A9BB212FB03F39AB23B6A9BB272
:101F700013449BB218B2FB6919B2BB691CB27B6AED
:101F80009BB21A46920013449AB2BB699BB21344A7
:101F90009BB21BB241F2820200922246FFF7E4F8A4
:101FA000FB6A0133FB62FB6A022BD8DD0023FB6274
:101FB00085E18F4AFB6A13441B78012B5CD13B6A95
:101FC0009AB2BB699BB213449BB218B2FB6A9AB235
:101FD0007B6A9BB212FB03F39AB2FB699BB2134478
:101FE0009AB2BB699BB213449BB219B2BB6A9AB254
:101FF000BB699BB25B009BB2D31A9BB21CB27B6ADB
:102000009AB2BB699BB25B009BB2D31A9BB21BB264
:102010004FF6FF7200922246FFF7A6F8FB6A5C1C9F
:10202000744AFB6A9B0013441B681846FEF794FA37
:1020300002460B46381DCDE9002322466E4908F0C2
:1020400061FD3B6A9BB20C3398B2FB6A9AB27B6A21
:102050009BB212FB03F39AB2FB699BB213449BB28F
:10206000233399B23A1D4FF61F03019301230093C6
:10207000624BFFF725FC4FE03B6A9AB2BB699BB20B
:1020800013449BB218B2FB6A9AB27B6A9BB212FBF2
:1020900003F39AB2FB699BB213449AB2BB699BB239
:1020A00013449BB219B2BB6A9AB2BB699BB25B0084
:1020B0009BB2D31A9BB21CB27B6A9AB2BB699BB229
:1020C0005B009BB2D31A9BB21BB24FF6FF72009219
:1020D0002246FFF749F8FB6A5A1C3B1D484918463F
:1020E00008F010FD3B6A9BB20C3398B2FB6A9AB2BF
:1020F0007B6A9BB212FB03F39AB2FB699BB2134457
:102100009BB2233399B23A1D4FF61F03019301236B
:1021100000933A4BFFF7D4FBFB6A0533344AD35C98
:10212000012B71D13B6A9AB2BB6A9BB213449AB23B
:10213000BB699BB213449BB218B2FB6A9AB27B6A2A
:102140009BB212FB03F39AB2FB699BB213449AB29F
:10215000BB699BB213449BB219B2BB6A9AB2BB690A
:102160009BB25B009BB2D31A9BB21CB27B6A9AB241
:10217000BB699BB25B009BB2D31A9BB21BB24FF6FA
:10218000FF7200922246FEF7EFFFFB6A9C1DFB6A7E
:102190000533184A9B0013441B681846FEF7DCF908
:1021A00002460B46381DCDE900232246154908F0AA
:1021B000A9FC3B6A9AB2BB6A9BB213449BB20C3334
:1021C00098B2FB6A9AB27B6A9BB212FB03F39AB293
:1021D000FB699BB213449BB2233399B23A1D4FF46F
:1021E000F043019301230093044BFFF769FB63E085
:1021F0008C050020A405002078CD000844F30008D9
:1022000088CD000898CD00083B6A9AB2BB6A9BB2A1
:1022100013449AB2BB699BB213449BB218B2FB6AD7
:102220009AB27B6A9BB212FB03F39AB2FB699BB230
:1022300013449AB2BB699BB213449BB219B2BB6AF6
:102240009AB2BB699BB25B009BB2D31A9BB21CB221
:102250007B6A9AB2BB699BB25B009BB2D31A9BB2FA
:102260001BB24FF6FF7200922246FEF77DFFFB6A1B
:102270009A1D3B1D2249184608F044FC3B6A9AB25D
:10228000BB6A9BB213449BB20C3398B2FB6A9AB2FE
:102290007B6A9BB212FB03F39AB2FB699BB21344B5
:1022A0009BB2233399B23A1D4FF4F04301930123BB
:1022B0000093144BFFF704FBFB6A0133FB62FB6ADC
:1022C000042B7FF776AE4FF4FC6301930523009354
:1022D00032234FF4877240F209116420FFF7B5FCF6
:1022E0000023019301230093074B084A4FF4957193
:1022F000AA20FFF7E5FA00BF3437BD4690BD00BF06
:1023000088CD000844F3000864D90008A8CD00086F
:10231000F0B583B002AF4FF4F0734FF4A072002118
:102320000020FEF7C7FE4FF6FF70FFF7F3F97E4B74
:102330001B78143398B27D4B1B781C467C4B1B7862
:1023400032339AB27B4B1B781E339BB247F6E03197
:102350000191052100912146FFF777FC00230193AD
:1023600001230093744B754A48214B20FFF7A8FACC
:102370006D4B1B781A466E4B1B7813449BB26E3321
:1023800098B26A4B1B781C46694B1B7832339AB261
:10239000684B1B781E339BB247F6E0310191052153
:1023A00000912146FFF751FC5F4B1B781A46604BAA
:1023B0001B7813449BB2913398B2002301930123FD
:1023C00000935D4B5E4A4821FFF77AFA564B1B7823
:1023D000143398B2554B1B781A46564B1B7813444E
:1023E0009BB2323399B2524B1B7832339AB2514B73
:1023F0001B781E339BB24FF4FC64019405240094B7
:10240000FFF723FC494B1B785B001846FEF792F858
:1024100004460D46474B1B781846FEF78BF84FF0E5
:102420003332484BFEF7F0F802460B461046194689
:1024300002460B46FDF732FF02460B462046294670
:10244000FDF72CFF02460B4610461946FEF7B4FB7B
:10245000034699B20023019301230093364B3A4A75
:102460005A20FFF72DFA394B1B78002B72D12E4BD7
:102470001B781A462E4B1B7813449BB26E3398B2CE
:102480002A4B1B781A462B4B1B7813449BB23233D2
:1024900099B2274B1B7832339AB2264B1B781E33E6
:1024A0009BB240F2FF74019405240094FFF7CDFB2A
:1024B0001D4B1B781A461E4B1B7813449BB28C3362
:1024C0009EB21A4B1B785B001846FEF733F80446A1
:1024D0000D46184B1B781846FEF72CF84FF0333298
:1024E000184BFEF791F802460B4610461946024675
:1024F0000B46FDF7D3FE02460B4620462946FDF764
:10250000CDFE02460B4610461946FEF755FB034624
:1025100099B20023019301230093074B0C4A3046E4
:10252000FFF7CEF971E000BF00000020010000209D
:10253000020000200300002044F30008B4CD00088E
:10254000BCCD00083333F33FC4CD0008780400202D
:10255000CCCD00083A4B1B781A463A4B1B781344F3
:102560009BB26E3398B2384B1B781A46374B1B78A8
:1025700013449BB2323399B2324B1B7832339AB246
:10258000324B1B781E339BB24FF61F040194052477
:102590000094FFF75AFB2A4B1B781A46294B1B78ED
:1025A00013449BB28C339EB2274B1B785B001846BA
:1025B000FDF7C0FF04460D46244B1B781846FDF777
:1025C000B9FF4FF03332224BFEF71EF802460B469E
:1025D0001046194602460B46FDF760FE02460B46C2
:1025E00020462946FDF75AFE02460B46104619467C
:1025F000FEF7E2FA034699B2002301930123009308
:10260000144B154A3046FFF75BF94FF4FC63019316
:10261000052300933C234FF48772F5216420FFF7D4
:1026200014FB00230193012300930A4B0B4A40F251
:102630001D11B920FFF744F900BF0437BD46F0BDB6
:102640000000002002000020010000200300002004
:102650003333F33F44F30008D8CD0008E4CD00083D
:10266000B0B584B002AF4FF4F0734FF4A072002104
:102670000020FEF71FFD4FF6FF70FFF74BF8002319
:10268000FB7131E3FB79BF4AD35C002B7AD1BE4B9F
:102690001B781846FDF74EFF04460D46FB79BB4AF2
:1026A000127802FB03F31846FDF744FF4FF0333274
:1026B000B74BFDF7A9FF02460B4620462946FDF71A
:1026C000EDFD02460B4610461946FEF775FA034625
:1026D00098B2B04B1B781946AC4B1B781A46AE4BE0
:1026E0001B781C4640F2FF73019305230093234699
:1026F000FFF7ABFAFB7901331A46A849A84808F05E
:1027000001FAA14B1B781846FDF714FF04460D464D
:10271000FB799E4A127802FB03F31846FDF70AFF85
:102720004FF033329A4BFDF76FFF02460B462046BF
:102730002946FDF7B3FD02460B4614461D46994B4C
:102740001B781846FDF7F6FE02460B462046294642
:10275000FDF7A4FD02460B4610461946FEF72CFA7B
:10276000034698B28B4B1B781A468F4B1B78134449
:1027700099B200230193012300938C4B884AFFF701
:102780009FF879E0804B1B781846FDF7D3FE04468E
:102790000D46FB797D4A127802FB03F31846FDF7DC
:1027A000C9FE4FF033327A4BFDF72EFF02460B463F
:1027B00020462946FDF772FD02460B461046194693
:1027C000FEF7FAF9034698B2724B1B7819466F4B25
:1027D0001B781A46704B1B781C464FF61F0301935B
:1027E000052300932346FFF730FAFB7901331A469D
:1027F0006F496B4808F086F9634B1B781846FDF764
:1028000099FE04460D46FB79604A127802FB03F3F9
:102810001846FDF78FFE4FF033325D4BFDF7F4FEA7
:1028200002460B4620462946FDF738FD02460B4678
:1028300014461D465B4B1B781846FDF77BFE02468F
:102840000B4620462946FDF729FD02460B46104659
:102850001946FEF7B1F9034698B24E4B1B781A465B
:10286000514B1B78134499B2002301930123009329
:102870004E4B4B4AFFF724F8FB790333414AD35CB4
:10288000002B40F09780404B1B781846FDF752FE16
:1028900004460D46FB793D4A127802FB03F31846C5
:1028A000FDF748FE4FF03332394BFDF7ADFE0246DF
:1028B0000B4620462946FDF7F1FC02460B46104622
:1028C0001946FEF779F9034698B2324B1B784B3321
:1028D00099B22E4B1B781A462F4B1B781C4640F2A0
:1028E000FF730193052300932346FFF7AEF9FB79AD
:1028F00004331A4629492A4808F004F9224B1B7868
:102900001846FDF717FE04460D46FB791F4A12785C
:1029100002FB03F31846FDF70DFE4FF033321C4B5C
:10292000FDF772FE02460B4620462946FDF7B6FC2F
:1029300002460B4614461D461A4B1B781846FDF7F7
:10294000F9FD02460B4620462946FDF7A7FC024644
:102950000B4610461946FEF72FF9034698B20D4B69
:102960001B781A46104B1B7813449BB24B3399B219
:1029700000230193012300930C4B094AFEF7A0FFAB
:1029800095E000BF8005002000000020020000202C
:102990003333F33F0100002003000020ECCD00089A
:1029A000580400200A0000200B00002064D9000811
:1029B000F8CD0008804B1B781846FDF7BBFD044698
:1029C0000D46FB797D4A127802FB03F31846FDF7AA
:1029D000B1FD4FF033327A4BFDF716FE02460B463F
:1029E00020462946FDF75AFC02460B46104619467A
:1029F000FEF7E2F8034698B2724B1B784B3399B25C
:102A00006E4B1B781A46704B1B781C464FF61F0303
:102A10000193052300932346FFF717F9FB7904334D
:102A20001A466A496A4808F06DF8634B1B781846E5
:102A3000FDF780FD04460D46FB79604A127802FBE3
:102A400003F31846FDF776FD4FF033325C4BFDF78C
:102A5000DBFD02460B4620462946FDF71FFC0246D9
:102A60000B4614461D465B4B1B781846FDF762FD6E
:102A700002460B4620462946FDF710FC02460B464F
:102A800010461946FEF798F8034698B24D4B1B784E
:102A90001A46514B1B7813449BB24B3399B2002317
:102AA0000193012300934D4B494AFEF709FFFB793F
:102AB00006334B4AD35C002B40F096803E4B1B788C
:102AC0001846FDF737FD04460D46FB793B4A127860
:102AD00002FB03F31846FDF72DFD4FF03332384B60
:102AE000FDF792FD02460B4620462946FDF7D6FB30
:102AF00002460B4610461946FEF75EF8034698B2AA
:102B0000304B1B78963399B22C4B1B781A462E4BC0
:102B10001B781C4640F2FF73019305230093234664
:102B2000FFF793F8FB7907331A462E49284807F038
:102B3000E9FF214B1B781846FDF7FCFC04460D46C7
:102B4000FB791E4A127802FB03F31846FDF7F2FCEC
:102B50004FF033321A4BFDF757FD02460B46204625
:102B60002946FDF79BFB02460B4614461D46194BB2
:102B70001B781846FDF7DEFC02460B462046294628
:102B8000FDF78CFB02460B4610461946FEF714F87B
:102B9000034698B20B4B1B781A460F4B1B78134415
:102BA0009BB2963399B200230193012300930B4B00
:102BB000074AFEF785FE94E0000000200200002096
:102BC0003333F33F0100002003000020F8CD00085C
:102BD000580400200A0000200B00002064D90008DF
:102BE00080050020ECCD00085A4B1B781846FDF7F5
:102BF000A1FC04460D46FB79574A127802FB03F309
:102C00001846FDF797FC4FF03332544BFDF7FCFCB0
:102C100002460B4620462946FDF740FB02460B467E
:102C200010461946FDF7C8FF034698B24C4B1B7877
:102C3000963399B2484B1B781A464A4B1B781C4670
:102C40004FF61F030193052300932346FEF7FDFF74
:102C5000FB7907331A464449444807F053FF3D4B7C
:102C60001B781846FDF766FC04460D46FB793A4A88
:102C7000127802FB03F31846FDF75CFC4FF0333289
:102C8000364BFDF7C1FC02460B4620462946FDF7B0
:102C900005FB02460B4614461D46354B1B7818466D
:102CA000FDF748FC02460B4620462946FDF7F6FA9A
:102CB00002460B4610461946FDF77EFF034698B2C2
:102CC000274B1B781A462B4B1B7813449BB2963329
:102CD00099B20023019301230093274B234AFEF767
:102CE000EFFDFB790133FB71FB79022B7FF6CAAC58
:102CF000224B5B7A002B45D1164B1B781846184B9C
:102D00001B78E13399B2144B1B781A46154B1B788C
:102D10001C4640F2FF730193052300932346FEF700
:102D200094FF0C4B1B781A46114B1B78134498B236
:102D30000B4B1B781A460F4B1B7813449BB2E133A5
:102D400099B200230193012300930B4B0C4AFEF729
:102D5000B7FD44E000000020020000203333F33FC1
:102D60000100002003000020F8CD000858040020D6
:102D70000A0000200B00002064D900088005002014
:102D800004CE0008914B1B781846914B1B78E13319
:102D900099B2904B1B781A468F4B1B781C464FF606
:102DA0001F030193052300932346FEF74EFF874B35
:102DB0001B781A46894B1B78134498B2844B1B78B6
:102DC0001A46874B1B7813449BB2E13399B2002318
:102DD000019301230093834B834AFEF771FD7B4BE4
:102DE0001B781846FDF7A6FB04460D46794B1B7869
:102DF0001846FDF79FFB4FF033327C4BFDF704FC88
:102E000002460B4620462946FDF748FA02460B4685
:102E100010461946FDF7D0FE034698B26C4B1B785E
:102E2000E13399B26B4B1B781A466B4B1B781C46EF
:102E30004FF4FC630193052300932346FEF705FF3F
:102E4000624B1B781846FDF775FB04460D46614B37
:102E50001B781846FDF76EFB4FF03332634BFDF7DE
:102E6000D3FB02460B4620462946FDF717FA0246D9
:102E70000B4614461D46594B1B781846FDF75AFB66
:102E800002460B4620462946FDF708FA02460B4645
:102E900010461946FDF790FE034698B24C4B1B783E
:102EA0001A464F4B1B7813449BB2E13399B200236F
:102EB0000193012300934B4B4D4AFEF701FD434B19
:102EC0001B781846FDF736FB04460D46414B1B7830
:102ED0001846FDF72FFB4FF03332444BFDF794FBC0
:102EE00002460B461046194602460B46FDF7D6F938
:102EF00002460B4620462946FDF7D0F902460B460E
:102F000010461946FDF758FE034698B2304B1B7821
:102F1000E13399B22F4B1B781A462F4B1B781C4676
:102F20004FF4FC630193052300932346FEF78DFEC7
:102F3000264B1B781846FDF7FDFA04460D46254B37
:102F40001B785B001846FDF7F5FA4FF03332274B3C
:102F5000FDF75AFB02460B4620462946FDF79EF92F
:102F600002460B4614461D461C4B1B781846FDF7BF
:102F7000E1FA02460B4620462946FDF78FF9024644
:102F80000B46104619464FF000021A4BFDF786F922
:102F900002460B4610461946FDF70EFE034698B250
:102FA0000B4B1B781A460E4B1B7813449BB2E13334
:102FB00099B200230193012300930F4B0F4AFEF7B0
:102FC0007FFC00BF0837BD46B0BD00BF0000002039
:102FD0000100002002000020030000200A00002061
:102FE0000B00002064D9000810CE00083333F33FF3
:102FF000E4CD00080000144080E500081CCE000865
:10300000F0B587B002AF00233B81914B1B889BB288
:10301000632B19D98E4B1B889BB2B3F5AA7F13D8AB
:103020008C4B1B889BB2E52B0ED98A4B1B889BB21D
:10303000B3F59E7F08D2884B1B78002B04D1864BBA
:1030400001221A70FFF70CFB814B1B889BB2C72B28
:1030500019D97F4B1B889BB2B3F58C7F13D87D4B5E
:103060001B889BB2FE2B0ED97A4B1B889BB2B3F503
:103070009E7F08D2784B1B78012B04D1764B00221F
:103080001A70FEF735FF724B1B889BB2B3F5A77F12
:1030900019D96F4B1B889BB2B3F5DC7F13D86D4BEE
:1030A0001B889BB2FE2B0ED96A4B1B889BB2B3F5D3
:1030B0009E7F08D2684B1B78012B04D1664B0222FD
:1030C0001A70FFF725F9644B1B78022B40F0C8817A
:1030D0000023BB805E4B1B889BB23B2B33D95C4BE0
:1030E0001B889BB2D22B2ED85A4B1B889BB22C2B01
:1030F00029D9584B1B889BB2782B24D8574B40F2C8
:10310000FF321A80554B1B881B0A9BB2DBB23B7106
:10311000524B1B88DBB27B71391D022300930223C3
:103120004F4A504801F012FA4B4B1B78012B03D148
:103130004D494E4800F044FC484B1A884C4B1A80CD
:103140004C4B01221A70424B1B889BB2B3F5877F10
:1031500033D33F4B1B889BB2B3F5D57F2DD23D4B6C
:103160001B889BB22C2B28D93A4B1B889BB2782BFF
:1031700023D83A4B00221A80384B1B881B0A9BB27B
:10318000DBB23B71354B1B88DBB27B71391D0223EF
:1031900000930223324A334801F0D8F92E4B1B78B2
:1031A000012B03D13049314800F00AFC2B4B1A881F
:1031B0002F4B1A802F4B01221A70254B1B889BB274
:1031C0003B2B13D9224B1B889BB2D22B0ED8214B01
:1031D0001B889BB2A92B09D91E4B1B889BB2E62BDF
:1031E00004D81D4B01221A70FFF73AFA184B1B88BE
:1031F0009BB2B3F5877FC0F01381154B1B889BB240
:10320000B3F5D57F80F00C81124B1B889BB2BD2B90
:1032100040F206810F4B1B889BB2E62B00F2008127
:10322000154B00221A8000BF134B1B889BB2312B19
:10323000FAD9124B1B78002B0CBF01230023DBB201
:103240001A460E4B1A700D4B1B78002B18E000BF6E
:1032500054040020560400206D0400207004002057
:103260001A000020100000208005002074050020B6
:10327000720400207F0400207A04002078040020DB
:1032800061D101224FF40061794803F0A5FD794B2B
:103290001B781A46784B1B7813449BB26E3398B256
:1032A000764B1B781A46764B1B7813449BB232330D
:1032B00099B2714B1B7832339AB2714B1B781E3323
:1032C0009BB240F2FF74019405240094FEF7BDFC0C
:1032D000684B1B781A46684B1B7813449BB28C339F
:1032E0009EB2664B1B785B001846FDF723F9044637
:1032F0000D46634B1B781846FDF71CF94FF033322F
:10330000604BFDF781F902460B461046194602460E
:103310000B46FCF7C3FF02460B4620462946FCF746
:10332000BDFF02460B4610461946FDF745FC034615
:1033300099B20023019301230093534B534A304623
:10334000FEF7BEFA60E000224FF40061484803F047
:1033500043FD484B1B781A46474B1B7813449BB2DE
:103360006E3398B2454B1B781A46454B1B78134475
:103370009BB2323399B2404B1B7832339AB2404BF6
:103380001B781E339BB24FF61F0401940524009452
:10339000FEF75BFC374B1B781A46374B1B78134400
:1033A0009BB28C339EB2354B1B785B001846FDF701
:1033B000C1F804460D46324B1B781846FDF7BAF8A3
:1033C0004FF033322F4BFDF71FF902460B461046E4
:1033D000194602460B46FCF761FF02460B462046A3
:1033E0002946FCF75BFF02460B4610461946FDF7DF
:1033F000E3FB034699B20023019301230093224B80
:10340000234A3046FEF75CFA012300930223214A47
:103410002149224801F09AF81F4B1A78204B1A7064
:10342000204B1B889BB2592B40F2A8821D4B1B8856
:103430009BB2B3F5AD7F80F0A1821B4B1B889BB282
:10344000F42B40F29B82184B1B889BB2B3F59E7FF6
:1034500080F09482154B00221A70FEF749FD8DE230
:10346000124B1B78012B40F089820023FB6080E225
:1034700000000240000000200200002001000020A7
:10348000030000203333F33F44F30008CCCD0008A1
:10349000D8CD00081A000020780400201400002075
:1034A0007904002054040020560400206D040020FC
:1034B000974B1B889BB21946964AFB6832F813302B
:1034C0001A46954B1B7813449942C0F28680904B64
:1034D0001B889BB21946914B1B7818468D4AFB6896
:1034E00032F8133003448C4A12789B1A994274DCE8
:1034F0008B4B1B889BB2312B6FD9894B1B889BB29E
:10350000502B6AD8874B00221A8000BF854B1B883E
:103510009BB2312BFAD9844AFB6813441B78002BE9
:103520000CBF01230023DBB219467F4AFB6813441A
:103530000A461A707C4AFB6813441B7863F07F03C9
:10354000D9B27A4AFB6813440A461A70FB68DBB2A8
:10355000184600F045FF744AFB6813441B78002BA3
:103560000DD10122FB6802FA03F39BB2DB439AB24E
:103570006F4B1B8813409AB26D4B1A800AE00122F0
:10358000FB6802FA03F39AB2694B1B8813439AB2A1
:10359000674B1A80664B1B881B0A9BB2DBB23B72DF
:1035A000634B1B88DBB27B7207F108010223009397
:1035B0000223604A604800F0C9FF604B1B78012B72
:1035C00003D15F49584800F0FBF9594B1A885D4B0D
:1035D0001A805D4B01221A70D0E14D4B1B889BB2C3
:1035E00019464C4AFB6832F813301A464A4B1B788E
:1035F00013449942C0F2AA80454B1B889BB21946DE
:10360000464B1B781846434AFB6832F81330034494
:10361000414A12789B1A994200F39880404B1B88CC
:103620009BB2812B40F292803D4B1B889BB2A02B1A
:1036300000F28C803B4B00221A8000BF394B1B8864
:103640009BB2312BFAD9FB680333374AD35C002B8A
:103650000CBF01230023DAB2FB6803331146324A60
:10366000D154FB680333304AD25CFB68033362F009
:103670007F02D1B22D4AD154FB68DBB20333DBB2F7
:10368000184600F0ADFEFB680333274AD35C002BDD
:103690000ED1FB680333012202FA03F39BB2DB4332
:1036A0009AB2234B1B8813409AB2214B1A800BE02D
:1036B000FB680333012202FA03F39AB21C4B1B8806
:1036C00013439AB21A4B1A80194B1B881B0A9BB2E0
:1036D000DBB23B72164B1B88DBB27B7207F1080131
:1036E000022300930223134A134800F02FFF134BC9
:1036F0001B78012B03D112490B4800F061F90C4BE8
:103700001A88104B1A80104B01221A7036E100BF44
:1037100054040020040000200A00002002000020C1
:10372000560400207A04002074050020680500205B
:10373000700400201A000020100000206D040020FA
:1037400080050020720400206C0400208D4B1B8833
:103750009BB219468C4AFB6832F813301A468B4BE1
:103760001B7813449942C0F28880864B1B889BB219
:103770001946874B1B781846834AFB6832F813308A
:103780000344824A12789B1A994276DC814B1B884B
:103790009BB2C72B71D97F4B1B889BB2E62B6CD891
:1037A0007D4B00221A8000BF7B4B1B889BB2312BC4
:1037B000FAD9FB680633794AD35C002B0CBF01238E
:1037C0000023DAB2FB6806331146744AD154FB6811
:1037D0000633724AD25CFB68063362F07F02D1B2D4
:1037E0006F4AD154FB68DBB20633DBB2184600F0F7
:1037F000F7FDFB680633694AD35C002B0ED1FB68EA
:103800000633012202FA03F39BB2DB439AB2654B03
:103810001B8813409AB2634B1A800BE0FB68063397
:10382000012202FA03F39AB25E4B1B8813439AB249
:103830005C4B1A805B4B1B881B0A9BB2DBB23B7252
:10384000584B1B88DBB27B7207F1080102230093FF
:103850000223554A554800F079FE554B1B78012B41
:1038600003D154494D4800F0ABF84E4B1A88524BE7
:103870001A80524B01221A7080E0424B1B889BB287
:103880001A46414B1B881946404B1B780B449A4201
:103890006CDB3C4B1B889BB219463D4B1B781A4690
:1038A000394B1B881344394A12789B1A99425DDCC4
:1038B000384B1B889BB2F92B58D9364B1B889BB2CF
:1038C000B3F58C7F52D8344B00221A8000BF324BA4
:1038D0001B889BB2312BFAD9304B5B7A002B0CBF83
:1038E00001230023DBB21A462C4B5A722B4B5B7A16
:1038F00063F07F03DAB22A4B5A72092000F070FDA0
:10390000264B5B7A002B07D1264B1B8823F40073D0
:103910009AB2244B1A8006E0224B1B8843F40073B2
:103920009AB2204B1A801F4B1B881B0A9BB2DBB23A
:103930003B721C4B1B88DBB27B7207F10801022330
:1039400000930223184A194800F000FE184B1B7818
:10395000012B03D11749114800F032F8114B1A8896
:10396000154B1A80154B01221A7007E0FB680133D2
:10397000FB60FB68022B7FF79BADFFE700BF1437AE
:10398000BD46F0BD54040020040000200A000020C1
:1039900002000020560400207A0400207405002054
:1039A00068050020700400201A000020100000208C
:1039B0006D04002080050020720400206C040020AB
:1039C000B0B586B002AF786039600023FB735AE36C
:1039D000FB7B7A6813441A78FB7B39680B441B78AD
:1039E0009A4200F04D83FB7B7A681A44FB7B39686E
:1039F0000B4412781A70FB7B022B00F2BC80FB7B1D
:103A00003A6813441B78002B3AD1804B1B78184638
:103A1000FCF790FD04460D46FB7B7D4A127802FBC5
:103A200003F31846FCF786FD4FF03332794BFCF771
:103A3000EBFD02460B4620462946FCF72FFC0246CA
:103A40000B4610461946FDF7B7F8034698B2724B7D
:103A50001B7819466E4B1B781A46704B1B781C4618
:103A600040F2FF730193052300932346FEF7EDF820
:103A7000FB7B01331A466A496A4807F043F839E08C
:103A8000624B1B781846FCF755FD04460D46FB7B40
:103A90005F4A127802FB03F31846FCF74BFD4FF028
:103AA00033325C4BFCF7B0FD02460B4620462946FC
:103AB000FCF7F4FB02460B4610461946FDF77CF86E
:103AC000034698B2544B1B781946514B1B781A4643
:103AD000524B1B781C464FF61F030193052300939E
:103AE0002346FEF7B2F8FB7B01331A464E494D4898
:103AF00007F008F8454B1B781846FCF71BFD0446F9
:103B00000D46FB7B424A127802FB03F31846FCF792
:103B100011FD4FF033323F4BFCF776FD02460B466A
:103B200020462946FCF7BAFB02460B4614461D46C2
:103B30003E4B1B781846FCF7FDFC02460B46204620
:103B40002946FCF7ABFB02460B4610461946FDF72B
:103B500033F8034698B2304B1B781A46344B1B7827
:103B6000134499B20023019301230093314B2D4A52
:103B7000FDF7A6FE84E2FB7B022B40F2DD80FB7B9F
:103B8000052B00F2D980FB7B3A6813441B78002B8D
:103B900052D11E4B1B781846FCF7CCFC04460D4650
:103BA000FB7B033B1A4A127802FB03F31846FCF72F
:103BB000C1FC4FF03332174BFCF726FD02460B4693
:103BC00020462946FCF76AFB02460B46104619467A
:103BD000FCF7F2FF034698B20F4B1B784B3399B2B8
:103BE0000B4B1B781A460D4B1B781C4640F2FF739B
:103BF0000193052300932346FEF727F8FB7B01334F
:103C00001A460749074806F07DFF51E000000020F2
:103C1000020000203333F33F0100002003000020A6
:103C2000ECCD000858040020F8CD00080A00002060
:103C30000B00002064D90008A54B1B781846FCF740
:103C400079FC04460D46FB7B033BA24A127802FB3B
:103C500003F31846FCF76EFC4FF033329E4BFCF733
:103C6000D3FC02460B4620462946FCF717FB0246CA
:103C70000B4610461946FCF79FFF034698B2974B38
:103C80001B784B3399B2934B1B781A46944B1B7895
:103C90001C464FF61F030193052300932346FDF7AF
:103CA000D4FFFB7B01331A468E498F4806F02AFF6A
:103CB000874B1B781846FCF73DFC04460D46FB7B02
:103CC000033B844A127802FB03F31846FCF732FCEC
:103CD0004FF03332804BFCF797FC02460B462046F0
:103CE0002946FCF7DBFA02460B4614461D467F4B7D
:103CF0001B781846FCF71EFC02460B462046294658
:103D0000FCF7CCFA02460B4610461946FCF754FF66
:103D1000034698B2714B1B781A46754B1B781344B7
:103D20009BB24B3399B20023019301230093714B53
:103D30006D4AFDF7C5FDA3E1FB7B052B40F2DE805C
:103D4000FB7B082B00F2DA80FB7B3A6813441B787C
:103D5000002B3CD15E4B1B781846FCF7EBFB04466E
:103D60000D46FB7B063B5B4A127802FB03F31846C9
:103D7000FCF7E0FB4FF03332574BFCF745FC0246B3
:103D80000B4620462946FCF789FA02460B461046A8
:103D90001946FCF711FF034698B2504B1B78963337
:103DA00099B24C4B1B781A464D4B1B781C4640F27F
:103DB000FF730193052300932346FDF746FFFB7B2A
:103DC00001331A464C49484806F09CFE3BE0404B04
:103DD0001B781846FCF7AEFB04460D46FB7B063B02
:103DE0003C4A127802FB03F31846FCF7A3FB4FF0A2
:103DF0003332394BFCF708FC02460B462046294675
:103E0000FCF74CFA02460B4610461946FCF7D4FE66
:103E1000034698B2314B1B78963399B22D4B1B78E1
:103E20001A462F4B1B781C464FF61F0301930523A0
:103E300000932346FDF709FFFB7B01331A4629490E
:103E4000294806F05FFE224B1B781846FCF772FBF0
:103E500004460D46FB7B063B1E4A127802FB03F329
:103E60001846FCF767FB4FF033321B4BFCF7CCFBDB
:103E700002460B4620462946FCF710FA02460B463E
:103E800014461D46194B1B781846FCF753FB024697
:103E90000B4620462946FCF701FA02460B4610461F
:103EA0001946FCF789FE034698B20C4B1B781A465C
:103EB0000F4B1B7813449BB2963399B200230193A6
:103EC000012300930B4B084AFDF7FAFCD8E000BF32
:103ED00000000020020000203333F33F01000020E7
:103EE00003000020F8CD0008580400200A0000203C
:103EF0000B00002064D90008ECCD0008FB7B3A6879
:103F000013441B78002B3CD1634B1B781846FCF7FD
:103F100011FB04460D46FB7B093B604A127802FB0D
:103F200003F31846FCF706FB4FF033325C4BFCF70B
:103F30006BFB02460B4620462946FCF7AFF90246CA
:103F40000B4610461946FCF737FE034698B2554B10
:103F50001B78E13399B2514B1B781A46524B1B78B0
:103F60001C4640F2FF730193052300932346FDF79F
:103F70006CFEFB7B01331A464C494D4806F0C2FDEE
:103F80003BE0454B1B781846FCF7D4FA04460D4637
:103F9000FB7B093B414A127802FB03F31846FCF70E
:103FA000C9FA4FF033323E4BFCF72EFB02460B466C
:103FB00020462946FCF772F902460B461046194680
:103FC000FCF7FAFD034698B2364B1B78E13399B201
:103FD000324B1B781A46344B1B781C464FF61F0396
:103FE0000193052300932346FDF72FFEFB7B01334E
:103FF0001A4630492E4806F085FD274B1B78184697
:10400000FCF798FA04460D46FB7B093B234A1278DD
:1040100002FB03F31846FCF78DFA4FF03332204BC6
:10402000FCF7F2FA02460B4620462946FCF736F921
:1040300002460B4614461D461F4B1B781846FCF7DC
:1040400079FA02460B4620462946FCF727F9024634
:104050000B4610461946FCF7AFFD034698B2114BCC
:104060001B781A46154B1B7813449BB2E13399B267
:104070000023019301230093114B0D4AFDF720FC0F
:10408000FB7B0133FB73FB7B092B7FF6A1AC00BFED
:1040900000BF1037BD46B0BD000000200200002068
:1040A0003333F33F0100002003000020ECCD000873
:1040B00058040020F8CD00080A0000200B00002062
:1040C00064D90008B0B5ACB002AF7860A04B07F17E
:1040D00064041D460FCD0FC40FCD0FC42B682360A1
:1040E0009C4B07F140041D460FCD0FC40FCD0FC4EC
:1040F0002B682360984B07F11C041D460FCD0FC49D
:104100000FCD0FC42B682360944B07F108041D46A4
:104110000FCD0FC42B6823805A23C7F8A0301E236D
:10412000C7F89C300023C7F8A430B6E0D7F8A43015
:104130007A6813441B78002B51D0894AD7F8A430F1
:1041400013441B78012B4AD1D7F8A4309B00A83325
:104150003B4453F8443C18B2D7F8A4309B00A83332
:104160003B4453F8683C19B2D7F8A0301AB2D7F8DC
:104170009C301BB24FF6FF740094FCF7F5FF794AB0
:10418000D7F8A4309B0013441B681846FCF7E4F9E9
:1041900002460B4607F18800734906F0B3FCD7F8D6
:1041A000A4309B00A8333B4453F8443C98B2D7F862
:1041B000A4309B00A8333B4453F88C3C99B2D7F809
:1041C000A4305B00A8333B4433F8A03C07F18802DD
:1041D000019301230093654BFDF772FB58E0604AA1
:1041E000D7F8A43013441B78002B51D1604AD7F87C
:1041F000A43013441A785A49D7F8A4300B441B78DA
:104200009A4245D0D7F8A4309B00A8333B4453F8DA
:10421000443C18B2D7F8A4309B00A8333B4453F871
:10422000683C19B2D7F8A0301AB2D7F89C301BB24C
:104230004FF6FF740094FCF797FFD7F8A4309B006B
:10424000A8333B4453F8443C9BB2013398B2D7F8AF
:10425000A4309B00A8333B4453F88C3C99B2D7F868
:10426000A4305B00A8333B4433F8A03C0193012306
:1042700000933E4B3F4AFDF723FB394AD7F8A43061
:10428000134419783A4AD7F8A43013440A461A70EE
:10429000D7F8A4300133C7F8A430D7F8A430082BDE
:1042A0007FF744AF7B6809331B78002B27D02C4B5A
:1042B0005B7A012B23D14FF6FF7300931E23552207
:1042C000D7214FF4B970FCF74FFF264B5B6A1846B5
:1042D000FCF742F902460B4607F18800224906F036
:1042E00011FC07F188024FF4F0430193012300937E
:1042F0001E4BF0214FF4B970FDF7E2FA23E0184BA2
:104300005B7A002B1FD11A4B5A7A154B5B7A9A4273
:1043100019D04FF6FF7300931E235522D7214FF477
:10432000B970FCF721FF4FF4F04301930123009390
:104330000E4B104AF0214FF4B970FDF7C1FA084B4B
:104340005A7A0B4B5A7200BFA837BD46B0BD00BFAA
:1043500030CE000854CE000878CE00089CCE00086D
:104360008C050020A405002024CE000844F300089A
:10437000980500202CCE000880B584B000AF03461D
:10438000FB7101F07DFB00210D2001F049FB0021B4
:10439000222001F045FB114AFB7913700F4BFD22DF
:1043A0005A700E4BFF229A700023FB7309E0FB7BCF
:1043B0000A4AD35C1946002001F032FBFB7B013333
:1043C000FB73FB7B022BF2D90321222001F028FB97
:1043D00001F066FB00BF1037BD4680BD80040020A1
:1043E00080B586B000AF0346FB7101F02DFE386149
:1043F0003223FB60264801F07FFB01F041FB0021E6
:104400000D2001F00DFB0021222001F009FB214AC3
:10441000FB7913701F4BFE225A70FB791E4AD25C47
:104420001C4B9A701D4B1B6800225A620023FB75BF
:1044300009E0FB7D174AD35C1946002001F0F0FA31
:10444000FB7D0133FB75FB7D022BF2D9032122207A
:1044500001F0E6FA01F024FB07E001F0F5FD024669
:104460003B69D31AFA689A4208D3122001F0AAFADB
:10447000034603F00803002BEFD000E000BF082143
:10448000122001F0CDFA00BF1837BD4680BD00BF35
:1044900000406C008004002068050020C403002058
:1044A00080B582B000AF78607B681B68B3F1804F45
:1044B00013D101F025FD03461A460E4B1A8001F078
:1044C00029FD03461A460C4B1A800C4B1B889BB2E5
:1044D00001339AB2094B1A8007E07B681B68084ACF
:1044E000934202D1074B01221A7000BF0837BD4624
:1044F00080BD00BF54040020560400207A04002030
:10450000000400407D04002080B582B000AF034667
:10451000FB80FB88082B06D10821122001F080FACD
:1045200001F0C6FA00BF00BF0837BD4680BD80B4A9
:1045300083B000AF87ED010A38607A683B681A6083
:1045400000BF0C37BD465DF8047B704780B584B072
:1045500000AFF860B9607A60FB70FB789AB24FF0F8
:10456000FF33F9680A4804F0ADFD3B7E9AB24FF084
:10457000FF33B968064804F0A5FD4FF0FF33012270
:104580007968034804F09EFD00BF1037BD4680BD2A
:104590000C040020F0B585B002AF78607B681B6822
:1045A000954A934240F02381944B1A78944B1B78A0
:1045B0009A4206D1934B01221A70934B00221A7033
:1045C0003BE08E4B1A78914B1B789A4211D08D4B61
:1045D0001B78012B0DD18C4B1B781A46874B197811
:1045E0008B4B9954884B1B780133DAB2864B1A7087
:1045F00023E0824B1B78502B1FD1824B1B78012B61
:104600001BD1834B1B78FE2B04D1814B5A78814BF5
:104610001A700FE07E4B1B78FD2B0BD17C4B5B7827
:104620001B021AB27A4B9B781BB213431BB29AB28D
:10463000794B1A80734B00221A70784B1A78754B9D
:104640001B789A4200F0D080724B1B78002B66D109
:1046500001224FF40061724802F0BEFB714B1B78DF
:10466000022B40F0C180704B1B781A466F4B1B78B1
:1046700013449BB26E3398B26D4B1B781A466D4B48
:104680001B7813449BB2323399B2684B1B78323398
:104690009AB2684B1B781E339BB240F2FF740194B0
:1046A00005240094FDF7D1FA5F4B1B781A465F4B47
:1046B0001B7813449BB28C339EB25D4B1B785B001E
:1046C0001846FBF737FF04460D465A4B1B78184631
:1046D000FBF730FF4FF03332574BFBF795FF0246A5
:1046E0000B461046194602460B46FBF7D7FD02461D
:1046F0000B4620462946FBF7D1FD02460B461046E5
:104700001946FCF759FA034699B200230193012395
:1047100000934A4B4A4A3046FDF7D2F864E0002243
:104720004FF400613E4802F057FB3E4B1B78022BD2
:104730005AD13D4B1B781A463C4B1B7813449BB215
:104740006E3398B23A4B1B781A463A4B1B78134497
:104750009BB2323399B2354B1B7832339AB2354B18
:104760001B781E339BB24FF61F040194052400945E
:10477000FDF76BFA2C4B1B781A462C4B1B78134415
:104780009BB28C339EB22A4B1B785B001846FBF71A
:10479000D1FE04460D46274B1B781846FBF7CAFE90
:1047A0004FF03332244BFBF72FFF02460B461046E7
:1047B000194602460B46FBF771FD02460B462046A2
:1047C0002946FBF76BFD02460B4610461946FCF7DF
:1047D000F3F9034699B20023019301230093174B89
:1047E000184A3046FDF76CF8174B01221A7000BFCB
:1047F0000C37BD46F0BD00BF001001401C06002074
:104800000D0000201D060020230600201A000020B5
:104810002006002078040020700400207904002085
:10482000000002406D040020000000200200002073
:1048300001000020030000203333F33F44F300085D
:10484000CCCD0008D8CD00087F040020B0B586B0DC
:1048500002AF01F093FB00F0D9FB00F0C5FD00F0C2
:10486000A3FD00F0DDFC00F06FFC00F037FC00F071
:10487000A1FC00F021FD00F06DFD00224FF48071DD
:10488000374802F0A9FA002200211C2001F0E7FCC1
:104890001C2001F000FD334803F0DAFFFCF724FB95
:1048A0000120FCF7F9FC304801F026F92F4803F00D
:1048B000CFFF01222E492F4804F08FFC2E492F48AC
:1048C000FDF72AFA2E4B1B78DBB2002B00F05A8141
:1048D0002C4B1B78DBB283F00103DBB2002B00F022
:1048E0005181122001F06EF8034603F04003402B83
:1048F00040F0F480122001F065F8034643F04003D5
:10490000DBB21946122001F08BF8102001F05AF8A2
:10491000034619460D2001F083F8002001F052F8FB
:1049200003461A46184B1B789A4240F0D78012492A
:104930001248FDF7F1F9144B1B781A46134B01216D
:104940009954114B1B781A46114B012199540E4B67
:104950001B781A460F4B002199540023FB7330E05B
:10496000000002407C03002000406C00C4030020D3
:104970001C0600200C040020800500207405002087
:104980007D0400207F0400204C0500205C050020F1
:104990008C05002050050020A64B1B781D46FC7B93
:1049A000002001F00FF803461946A34A2B469B004E
:1049B0002B449B00134423440A461A70FB7B0133AB
:1049C000FB73FB7B102BE7D900237B81994B1B7872
:1049D0001946994A0B469B000B449B0013441B78D5
:1049E000303B9BB21A465201D21A92001344DB00AC
:1049F0009AB2904B1B7818468F4903469B0003449C
:104A00009B000B4401331B78303B9BB21946890055
:104A10000B4419468800194603460B449B009BB281
:104A200013449AB2834B1B781846834903469B0074
:104A300003449B000B4402331B78303B9BB2194666
:104A400089000B445B009BB213449AB2794B1B78EC
:104A50001846794903469B0003449B000B440333EB
:104A60001B7813449BB2303B7B817B8907EE903AE5
:104A7000B8EE677A6F4B1B78DFED706AC7EE267A67
:104A80006F4A9B001344C3ED007A6A4B1B786C4A53
:104A90009B001344D3ED007A9FED6A7AF4EEC77A57
:104AA000F1EE10FA06DB634B1B78654A9B0013445A
:104AB000654A1A605F4B1B7819465E4B1B78184697
:104AC0005D4A0B469B000B449B00134410331A783D
:104AD0005E4B1A545D495E48FDF71EF9554B1B7835
:104AE0001A465C4B9B5C002B28D1524B1B785A4AD0
:104AF000D25C0132D1B2584AD1544E4B1B781A467F
:104B0000554B9B5C012B19D94A4B1B781A46524BCB
:104B100002219954474B1B781A46504B0021995457
:104B2000444B1B78464A9B0013444FF000021A6026
:104B3000404B1B781A46454B002199543D4B1B783E
:104B40000133DAB23B4B1A703A4B1B78092B02D96E
:104B5000384B00221A70374B1B781846FFF70CFCB5
:104B6000344B1B781A463B4B002199543C4B012295
:104B70001A703C4B1B780133DAB23A4B1A703A4B3D
:104B800000221A70FEF73CFA30493148FDF7C4F8AC
:104B9000364B1B78002B09D1314B1B78002B05D0ED
:104BA0003348FFF78FFA2E4B00221A702749284806
:104BB000FDF7B2F82D4B1B78012B1CD1284B1B782D
:104BC000002B18D02B4B1B7883F00103DBB2002B9A
:104BD00007D01F491D48FEF7F3FE214B00221A7033
:104BE00009E01A491A48FEF7EBFE1D4B00221A7025
:104BF000204B00221A7015491548FDF78DF8194B06
:104C00001B780A2B7FF65AAE00233B810023BB8022
:104C1000194B1B7883F00103DBB2002B00F0DD8021
:104C2000124B1B78002B01D1FDF762F900237B7337
:104C300069E000BF4C050020840400200000C84249
:104C4000A4050020000048420000484280050020E2
:104C5000740500205C050020500500208C05002014
:104C60006E0400207C0400207D0400206D040020E0
:104C7000240600206C0400207E0400207B7B734A05
:104C8000D35C002B0DD17B7B012202FA03F39BB294
:104C9000DB439AB26E4B1B8813409AB26C4B1A805E
:104CA0000AE07B7B012202FA03F39AB2684B1B886D
:104CB00013439AB2664B1A807B7B664AD35C002B07
:104CC0000DD17B7B012202FA03F39BB2DB439AB244
:104CD000614B1B8813409AB25F4B1A800AE07B7BC2
:104CE000012202FA03F39AB25B4B1B8813439AB278
:104CF000594B1A807A7B7B7B5649895C574AD15441
:104D00007B7B01337B737B7B092BB7D9012300931A
:104D10000223534A53495448FFF718FC514B1A7861
:104D2000524B1A704A4B1B881B0A9BB2DBB23B7278
:104D3000474B1B88DBB27B72454B1A884C4B1A8061
:104D400007F10801022300930223454A4948FFF76F
:104D5000FDFB414B1B881B0A9BB2DBB23B713E4BF8
:104D60001B88DBB27B713C4B1A88434B1A80391D80
:104D70000223009302233A4A4048FFF7E7FB00234F
:104D8000BB731BE0BA7BBB7B3D4992000A441268AF
:104D90003C499B000B441A60BB7B394A9B0013447F
:104DA000D3ED007ABB7B9B00374A13441846B0EE24
:104DB000670AFFF7BCFBBB7B0133BB73BB7B092BD3
:104DC000E0D9282300930123254A2F492F48FFF7D4
:104DD000BDFB2F4B01221A70EDE01C492D48FCF75A
:104DE0009BFF00237B736BE07B7B184AD35C002B1B
:104DF0000DD17B7B012202FA03F39BB2DB439AB213
:104E0000134B1B8813409AB2114B1A800AE07B7B2C
:104E1000012202FA03F39AB20D4B1B8813439AB294
:104E20000B4B1A807B7B0B4AD35C002B34D17B7BF2
:104E3000012202FA03F39BB2DB439AB2064B1B88B2
:104E400013409AB2044B1A8031E000BF8005002065
:104E5000700400208C0500207404002098050020B8
:104E60001A0000207804002014000020790400209B
:104E7000720400201000002076040020180000209A
:104E8000A4050020CC050020F40500200D00002022
:104E90007E040020740500207B7B012202FA03F3CC
:104EA0009AB2474B1B8813439AB2454B1A807A7BC0
:104EB0007B7B4449895C444AD1547B7B01337B73BF
:104EC0007B7B092B90D9414B1A78414B1B789A4236
:104ED0000BD00123009302233E4A3D493E48FFF791
:104EE00035FB3B4B1A78394B1A703C4B1A88344BC4
:104EF0001B889A4215D0324B1A88384B1A80374B90
:104F00001B881B0A9BB2DBB23B71344B1B88DBB2A4
:104F10007B71391D0223009302232E4A3048FFF78C
:104F200015FB304B1A88304B1B889A4216D02E4BFB
:104F30001A882C4B1A802B4B1B881B0A9BB2DBB2A6
:104F40003B72284B1B88DBB27B7207F108010223FE
:104F5000009302231F4A2548FFF7F8FA244A2549FF
:104F60002548FCF75DFF03461A46244B1A70234B75
:104F70001B78002B1FD00023BB7311E0BB7B1E4AA4
:104F80009B001344D3ED007ABB7B9B001C4A134467
:104F90001846B0EE670AFFF7CAFABB7B0133BB7352
:104FA000BB7B092BEAD9282300930123094A144922
:104FB0001448FFF7CBFA144B00221A707EE400BFAE
:104FC000740400208C05002098050020790400203E
:104FD000780400201A00002014000020760400202D
:104FE000180000207204002070040020100000202F
:104FF00024060020A4050020CC0500202E06002059
:10500000F40500200D0000207C04002080B594B041
:1050100000AF07F1200330220021184605F0D5FD2E
:1050200007F10C0300221A605A609A60DA601A6174
:105030000023BB60274B1B6C264A43F0805313644C
:10504000244B1B6C03F08053BB60BB6800237B6068
:10505000214B1B68204A43F4404313601E4B1B68DE
:1050600003F440437B607B6801233B624FF4803351
:105070007B620223BB634FF48003FB6304233B6426
:1050800064237B640223BB640423FB6407F12003D5
:10509000184601F0D3FE0346002B01D000F05AFA67
:1050A0000F23FB6002233B6100237B614FF480539D
:1050B000BB610023FB6107F10C030321184602F0DA
:1050C00035F90346002B01D000F044FA00BF5037F9
:1050D000BD4680BD003802400070004080B500AF82
:1050E000174B184A1A60164B4FF482725A60144BD1
:1050F00000229A60124B0022DA60114B00221A61E2
:105100000F4B00225A610E4B4FF400729A610C4B08
:105110001822DA610A4B00221A62094B00225A62F5
:10512000074B00229A62064B0A22DA62044802F018
:105130001DFB0346002B01D000F00CFA00BF80BD20
:10514000140200200030014080B500AF174B184A10
:105150001A60164B4FF482725A60144B00229A6008
:10516000124B0022DA60114B00221A610F4B002211
:105170005A610E4B4FF400729A610C4B0022DA61B7
:105180000A4B00221A62094B00225A62074B002286
:105190009A62064B0A22DA62044802F0E7FA0346F2
:1051A000002B01D000F0D6F900BF80BD6C020020BA
:1051B0000038004080B500AF174B184A1A60164BF4
:1051C0004FF482725A60144B00229A60124B0022F4
:1051D000DA60114B00221A610F4B00225A610E4B0C
:1051E0004FF400729A610C4B1822DA610A4B0022CC
:1051F0001A62094B00225A62074B00229A62064B40
:105200000A22DA62044802F0B1FA0346002B01D008
:1052100000F0A0F900BF80BDC4020020003C0040A7
:1052200080B586B000AF07F1080300221A605A600B
:105230009A60DA603B4600221A605A601D4B4FF0BC
:1052400080421A601B4B63225A601A4B00229A60FC
:10525000184B42F20F72DA60164B00221A61154B9E
:1052600000229A61134803F0A3FA0346002B01D0F1
:1052700000F070F94FF48053BB6007F10803194642
:105280000C4803F037FC0346002B01D000F062F914
:1052900000233B6000237B603B461946054803F032
:1052A0003FFE0346002B01D000F054F900BF183731
:1052B000BD4680BD7C03002080B586B000AF07F1FD
:1052C000080300221A605A609A60DA603B460022A6
:1052D0001A605A601D4B1E4A1A601C4B42F20F7234
:1052E0005A601A4B00229A60184B41F28732DA60FA
:1052F000164B00221A61154B00229A61134803F0E5
:1053000057FA0346002B01D000F024F94FF48053E4
:10531000BB6007F1080319460C4803F0EBFB03469A
:10532000002B01D000F016F900233B6000237B60C6
:105330003B461946054803F0F3FD0346002B01D018
:1053400000F008F900BF1837BD4680BDC403002037
:105350000004004080B500AF114B124A1A60104B98
:105360004FF461225A600E4B00229A600C4B0022CF
:10537000DA600B4B00221A61094B0C225A61084B70
:1053800000229A61064B0022DA61054803F04AFECA
:105390000346002B01D000F0DDF800BF80BD00BF48
:1053A0000C0400200010014080B582B000AF002343
:1053B0007B600C4B1B6B0B4A43F400131363094BCC
:1053C0001B6B03F400137B607B68002200210F201D
:1053D00000F045FF0F2000F05EFF00BF0837BD461C
:1053E00080BD00BF0038024080B58AB000AF07F131
:1053F000140300221A605A609A60DA601A6100236E
:105400003B61504B1B6B4F4A43F0040313634D4BFE
:105410001B6B03F004033B613B690023FB60494BBA
:105420001B6B484A43F080031363464B1B6B03F02E
:105430008003FB60FB680023BB60424B1B6B414A4F
:1054400043F0010313633F4B1B6B03F00103BB608D
:10545000BB6800237B603B4B1B6B3A4A43F0020363
:105460001363384B1B6B03F002037B607B680022E5
:105470004FF4C041344801F0AFFC002242F2070172
:10548000324801F0A9FC00224FF48071304801F04D
:10549000A3FC01224FF400612D4801F09DFC4FF464
:1054A000C0437B610123BB610023FB6100233B629E
:1054B00007F114031946244801F00AFB08237B6115
:1054C0004FF48813BB610223FB6107F114031946F3
:1054D0001F4801F0FDFA10237B610023BB6100230C
:1054E000FB6107F114031946194801F0F1FA42F281
:1054F00007037B610123BB610023FB6100233B6247
:1055000007F114031946114801F0E2FA4FF4106351
:105510007B610123BB610023FB6100233B6207F138
:10552000140319460A4801F0D3FA00220121092088
:1055300000F095FE092000F0AEFE00BF2837BD4602
:1055400080BD00BF00380240000802400004024055
:105550000000024080B400AF72B600BF00BFFDE79C
:1055600080B483B000AF00237B60104B5B6C0F4AAC
:1055700043F4804353640D4B5B6C03F480437B60C6
:105580007B6800233B60094B1B6C084A43F0805347
:105590001364064B1B6C03F080533B603B6800BFF9
:1055A0000C37BD465DF8047B704700BF00380240F1
:1055B00080B58EB000AF786007F1240300221A6036
:1055C0005A609A60DA601A617B681B68724A93427B
:1055D00034D100233B62714B5B6C704A43F48053BF
:1055E00053646E4B5B6C03F480533B623B6A002355
:1055F000FB616A4B1B6B694A43F001031363674B02
:105600001B6B03F00103FB61FB69E0237B62022358
:10561000BB620023FB6203233B6305237B6307F12B
:10562000240319465E4801F053FA0022002123208A
:1056300000F015FE232000F02EFEA9E07B681B6819
:10564000584A934262D10023BB61544B1B6C534AAE
:1056500043F480431364514B1B6C03F48043BB61E0
:10566000BB6900237B614D4B1B6B4C4A43F002032B
:1056700013634A4B1B6B03F002037B617B694FF49E
:1056800044437B620223BB620023FB6203233B6330
:1056900005237B6307F124031946434801F018FAF8
:1056A000424B434A1A60414B00225A603F4B402212
:1056B0009A603E4B0022DA603C4B4FF480621A61E4
:1056C0003A4B00225A61394B00229A61374B002233
:1056D000DA61364B00221A62344B00225A62334898
:1056E00000F0F4FD0346002B01D0FFF733FF7B6889
:1056F0002E4A9A642D4A7B6893630022012124205C
:1057000000F0ADFD242000F0C6FD41E07B681B6881
:10571000284A93423CD100233B61204B1B6C1F4A1B
:1057200043F4004313641D4B1B6C03F400433B61C3
:105730003B690023FB60194B1B6B184A43F00203C3
:105740001363164B1B6B03F00203FB60FB684FF403
:1057500080537B620223BB620023FB6203233B6313
:1057600007237B6307F1240319460F4801F0B0F9C2
:1057700030237B620223BB620023FB6203233B6373
:1057800006237B6307F124031946074801F0A0F9BB
:1057900000BF3837BD4680BD0030014000380240B0
:1057A0000000024000380040000402401C030020BA
:1057B00070600240003C004080B584B000AF78606B
:1057C0007B681B68B3F1804F16D10023FB601A4B36
:1057D0001B6C194A43F001031364174B1B6C03F055
:1057E0000103FB60FB68002201211C2000F037FD53
:1057F0001C2000F050FD1AE07B681B680F4A9342A2
:1058000015D10023BB600C4B1B6C0B4A43F0020309
:105810001364094B1B6C03F00203BB60BB680022DE
:1058200001211D2000F01BFD1D2000F034FD00BFF4
:105830001037BD4680BD00BF003802400004004064
:1058400080B58AB000AF786007F1140300221A60B7
:105850005A609A60DA601A617B681B681D4A93423D
:1058600034D100233B611C4B5B6C1B4A43F010039B
:105870005364194B5B6C03F010033B613B690023DD
:10588000FB60154B1B6B144A43F001031363124B6F
:105890001B6B03F00103FB60FB684FF4C0637B618B
:1058A0000223BB610023FB6103233B6207237B626E
:1058B00007F114031946094801F00AF900220021F2
:1058C000252000F0CCFC252000F0E5FC00BF2837A7
:1058D000BD4680BD0010014000380240000002407B
:1058E00080B400AF00BFFDE780B400AF00BFFDE7AC
:1058F00080B400AF00BFFDE780B400AF00BFFDE79C
:1059000080B400AF00BFFDE780B400AF00BFBD466C
:105910005DF8047B704780B400AF00BFBD465DF802
:10592000047B704780B400AF00BFBD465DF8047BC8
:10593000704780B500AF00F073FB00BF80BD80B53D
:1059400000AF082001F062FA00BF80BD80B500AF53
:10595000024800F053FE00BF80BD00BF1C030020C2
:1059600080B500AF024802F0D5FF00BF80BD00BF88
:105970007C03002080B500AF024802F0CBFF00BFDF
:1059800080BD00BFC403002080B500AF024802F014
:105990002FFC00BF80BD00BF1402002080B500AF07
:1059A000024802F025FC00BF80BD00BF6C02002051
:1059B00080B500AF024803F035FC00BF80BD00BFDA
:1059C0000C04002080B582B000AF0346FB71104B81
:1059D00000221A60FB7903F07F03DAB20D4B1A70D4
:1059E0004FF0FF3301220B490B4801F048FF4FF005
:1059F000FF3301220949084802F085F8044B0122CF
:105A00001A60064B1B7818460837BD4680BD00BF9C
:105A1000B402414230060020C402002034060020B7
:105A200080B582B000AF03460A46FB711346BB71D6
:105A3000104B00221A60FB7963F07F03DAB20E4B41
:105A40001A704FF0FF3301220B490C4801F017FF89
:105A5000094ABB7913704FF0FF330122064907480A
:105A600001F00DFF034B01221A6000BF0837BD464D
:105A700080BD00BFB402414230060020C4020020B5
:105A800080B500AF81210120FFF7CAFF00BF80BDB4
:105A900080B500AF80210120FFF7C2FF00BF80BDAD
:105AA00080B500AF83210120FFF7BAFF00BF80BDA2
:105AB00080B500AF85210120FFF7B2FF00BF80BD98
:105AC00080B582B000AF78607B681B0CDBB21946F2
:105AD0000620FFF7A5FF7B681B0ADBB219460720EB
